{
  "contractName": "OpenAuction",
  "abi": [
    {
      "inputs": [],
      "stateMutability": "payable",
      "type": "constructor",
      "payable": true
    },
    {
      "anonymous": false,
      "inputs": [
        {
          "indexed": false,
          "internalType": "uint256",
          "name": "endTime",
          "type": "uint256"
        }
      ],
      "name": "AuctionEnded",
      "type": "event"
    },
    {
      "anonymous": false,
      "inputs": [
        {
          "indexed": false,
          "internalType": "uint256",
          "name": "startTime",
          "type": "uint256"
        },
        {
          "indexed": false,
          "internalType": "uint256",
          "name": "endTime",
          "type": "uint256"
        }
      ],
      "name": "AuctionStarted",
      "type": "event"
    },
    {
      "anonymous": false,
      "inputs": [
        {
          "indexed": false,
          "internalType": "address",
          "name": "bidder",
          "type": "address"
        },
        {
          "indexed": false,
          "internalType": "uint256",
          "name": "amount",
          "type": "uint256"
        }
      ],
      "name": "NewBid",
      "type": "event"
    },
    {
      "inputs": [],
      "name": "auctionEndTime",
      "outputs": [
        {
          "internalType": "uint256",
          "name": "",
          "type": "uint256"
        }
      ],
      "stateMutability": "view",
      "type": "function",
      "constant": true
    },
    {
      "inputs": [],
      "name": "auctionStartTime",
      "outputs": [
        {
          "internalType": "uint256",
          "name": "",
          "type": "uint256"
        }
      ],
      "stateMutability": "view",
      "type": "function",
      "constant": true
    },
    {
      "inputs": [],
      "name": "owner",
      "outputs": [
        {
          "internalType": "address payable",
          "name": "",
          "type": "address"
        }
      ],
      "stateMutability": "view",
      "type": "function",
      "constant": true
    },
    {
      "inputs": [
        {
          "internalType": "uint256",
          "name": "_auctionDuration",
          "type": "uint256"
        }
      ],
      "name": "startAuction",
      "outputs": [],
      "stateMutability": "nonpayable",
      "type": "function"
    },
    {
      "inputs": [],
      "name": "bid",
      "outputs": [],
      "stateMutability": "payable",
      "type": "function",
      "payable": true
    },
    {
      "inputs": [],
      "name": "endAuction",
      "outputs": [],
      "stateMutability": "nonpayable",
      "type": "function"
    },
    {
      "inputs": [],
      "name": "timeLeftForAuction",
      "outputs": [
        {
          "internalType": "uint256",
          "name": "",
          "type": "uint256"
        }
      ],
      "stateMutability": "view",
      "type": "function",
      "constant": true
    },
    {
      "inputs": [],
      "name": "getContractBalance",
      "outputs": [
        {
          "internalType": "uint256",
          "name": "",
          "type": "uint256"
        }
      ],
      "stateMutability": "view",
      "type": "function",
      "constant": true
    }
  ],
  "bytecode": "0x6080604052336000806101000a81548173ffffffffffffffffffffffffffffffffffffffff021916908373ffffffffffffffffffffffffffffffffffffffff160217905550610e91806100536000396000f3fe60806040526004361061007b5760003560e01c80638da5cb5b1161004e5780638da5cb5b14610109578063b370c80814610134578063eb54f9ec1461015f578063fe67a54b1461018a5761007b565b8063065de74c146100805780631998aeef146100a95780634b449cba146100b35780636f9fb98a146100de575b600080fd5b34801561008c57600080fd5b506100a760048036038101906100a291906109b2565b6101a1565b005b6100b161028f565b005b3480156100bf57600080fd5b506100c861045b565b6040516100d591906109ee565b60405180910390f35b3480156100ea57600080fd5b506100f3610461565b60405161010091906109ee565b60405180910390f35b34801561011557600080fd5b5061011e610469565b60405161012b9190610a4a565b60405180910390f35b34801561014057600080fd5b5061014961048d565b60405161015691906109ee565b60405180910390f35b34801561016b57600080fd5b506101746104a2565b60405161018191906109ee565b60405180910390f35b34801561019657600080fd5b5061019f6104a8565b005b60008054906101000a900473ffffffffffffffffffffffffffffffffffffffff1673ffffffffffffffffffffffffffffffffffffffff163373ffffffffffffffffffffffffffffffffffffffff161461022f576040517f08c379a000000000000000000000000000000000000000000000000000000000815260040161022690610ae8565b60405180910390fd5b4260018190555080426102429190610b37565b6002819055507ff8910119ddbef5440c54532457dfe8250a10ed39e583292818f44724b9e1344c4282426102769190610b37565b604051610284929190610b8d565b60405180910390a150565b60025442106102d3576040517f08c379a00000000000000000000000000000000000000000000000000000000081526004016102ca90610c02565b60405180910390fd5b600360010154341161031a576040517f08c379a000000000000000000000000000000000000000000000000000000000815260040161031190610c6e565b60405180910390fd5b600060405180604001604052803373ffffffffffffffffffffffffffffffffffffffff168152602001348152509050600581908060018154018082558091505060019003906000526020600020906002020160009091909190915060008201518160000160006101000a81548173ffffffffffffffffffffffffffffffffffffffff021916908373ffffffffffffffffffffffffffffffffffffffff16021790555060208201518160010155505080600360008201518160000160006101000a81548173ffffffffffffffffffffffffffffffffffffffff021916908373ffffffffffffffffffffffffffffffffffffffff160217905550602082015181600101559050507fdd0b6c6a77960e2066c96171b4d7ac9e8b4c184011f38544afa36a5bb63ec59f3334604051610450929190610caf565b60405180910390a150565b60025481565b600047905090565b60008054906101000a900473ffffffffffffffffffffffffffffffffffffffff1681565b60004260025461049d9190610cd8565b905090565b60015481565b60008054906101000a900473ffffffffffffffffffffffffffffffffffffffff1673ffffffffffffffffffffffffffffffffffffffff163373ffffffffffffffffffffffffffffffffffffffff1614610536576040517f08c379a000000000000000000000000000000000000000000000000000000000815260040161052d90610ae8565b60405180910390fd5b600254421161057a576040517f08c379a000000000000000000000000000000000000000000000000000000000815260040161057190610d58565b60405180910390fd5b6005610584610796565b8154811061059557610594610d78565b5b9060005260206000209060020201600080820160006101000a81549073ffffffffffffffffffffffffffffffffffffffff02191690556001820160009055505060006005805480602002602001604051908101604052809291908181526020016000905b8282101561068b57838290600052602060002090600202016040518060400160405290816000820160009054906101000a900473ffffffffffffffffffffffffffffffffffffffff1673ffffffffffffffffffffffffffffffffffffffff1673ffffffffffffffffffffffffffffffffffffffff168152602001600182015481525050815260200190600101906105f9565b50505050905060005b8151811015610792578181815181106106b0576106af610d78565b5b6020026020010151602001514710156106fe576040517f08c379a00000000000000000000000000000000000000000000000000000000081526004016106f590610df3565b60405180910390fd5b81818151811061071157610710610d78565b5b60200260200101516000015173ffffffffffffffffffffffffffffffffffffffff166108fc83838151811061074957610748610d78565b5b6020026020010151602001519081150290604051600060405180830381858888f19350505050158015610780573d6000803e3d6000fd5b508061078b90610e13565b9050610694565b5050565b60008060036040518060400160405290816000820160009054906101000a900473ffffffffffffffffffffffffffffffffffffffff1673ffffffffffffffffffffffffffffffffffffffff1673ffffffffffffffffffffffffffffffffffffffff168152602001600182015481525050905060006005805480602002602001604051908101604052809291908181526020016000905b828210156108be57838290600052602060002090600202016040518060400160405290816000820160009054906101000a900473ffffffffffffffffffffffffffffffffffffffff1673ffffffffffffffffffffffffffffffffffffffff1673ffffffffffffffffffffffffffffffffffffffff1681526020016001820154815250508152602001906001019061082c565b50505050905060005b815181101561097057826000015173ffffffffffffffffffffffffffffffffffffffff168282815181106108fe576108fd610d78565b5b60200260200101516000015173ffffffffffffffffffffffffffffffffffffffff1614801561094f575060036001015482828151811061094157610940610d78565b5b602002602001015160200151145b1561095f57809350505050610974565b8061096990610e13565b90506108c7565b5050505b90565b600080fd5b6000819050919050565b61098f8161097c565b811461099a57600080fd5b50565b6000813590506109ac81610986565b92915050565b6000602082840312156109c8576109c7610977565b5b60006109d68482850161099d565b91505092915050565b6109e88161097c565b82525050565b6000602082019050610a0360008301846109df565b92915050565b600073ffffffffffffffffffffffffffffffffffffffff82169050919050565b6000610a3482610a09565b9050919050565b610a4481610a29565b82525050565b6000602082019050610a5f6000830184610a3b565b92915050565b600082825260208201905092915050565b7f4f6e6c79206f776e65722063616e2063616c6c20746869732066756e6374696f60008201527f6e2e000000000000000000000000000000000000000000000000000000000000602082015250565b6000610ad2602283610a65565b9150610add82610a76565b604082019050919050565b60006020820190508181036000830152610b0181610ac5565b9050919050565b7f4e487b7100000000000000000000000000000000000000000000000000000000600052601160045260246000fd5b6000610b428261097c565b9150610b4d8361097c565b9250827fffffffffffffffffffffffffffffffffffffffffffffffffffffffffffffffff03821115610b8257610b81610b08565b5b828201905092915050565b6000604082019050610ba260008301856109df565b610baf60208301846109df565b9392505050565b7f41756374696f6e206973206f766572206f72206e6f7420737461727465642e00600082015250565b6000610bec601f83610a65565b9150610bf782610bb6565b602082019050919050565b60006020820190508181036000830152610c1b81610bdf565b9050919050565b7f54686572652773206120686967686572206269646465722e0000000000000000600082015250565b6000610c58601883610a65565b9150610c6382610c22565b602082019050919050565b60006020820190508181036000830152610c8781610c4b565b9050919050565b6000610c9982610a09565b9050919050565b610ca981610c8e565b82525050565b6000604082019050610cc46000830185610ca0565b610cd160208301846109df565b9392505050565b6000610ce38261097c565b9150610cee8361097c565b925082821015610d0157610d00610b08565b5b828203905092915050565b7f41756374696f6e206475726174696f6e206973206e6f74206f7665722e000000600082015250565b6000610d42601d83610a65565b9150610d4d82610d0c565b602082019050919050565b60006020820190508181036000830152610d7181610d35565b9050919050565b7f4e487b7100000000000000000000000000000000000000000000000000000000600052603260045260246000fd5b7f4e6f7420656e6f75676820657468657200000000000000000000000000000000600082015250565b6000610ddd601083610a65565b9150610de882610da7565b602082019050919050565b60006020820190508181036000830152610e0c81610dd0565b9050919050565b6000610e1e8261097c565b91507fffffffffffffffffffffffffffffffffffffffffffffffffffffffffffffffff8203610e5057610e4f610b08565b5b60018201905091905056fea26469706673582212205f2ca804fe23ef9235ecd531ad552c81c6f72f9f011a8f6618af2ae5983ed15a64736f6c634300080f0033",
  "immutableReferences": {},
  "source": "// SPDX-License-Identifier: MIT\n\npragma solidity ^0.8.0;\n\ncontract OpenAuction {\n    address payable public owner;\n    uint public auctionStartTime;\n    uint public auctionEndTime;\n    \n    struct Bid {\n        address bidder;\n        uint bidAmount;\n    }\n\n    Bid highestBid;\n\n    Bid[] allBids;\n\n\n    modifier onlyOwner() {\n        require(msg.sender == owner, \"Only owner can call this function.\");\n        _;\n    }\n\n    modifier auctionNotEnded() {\n        require(block.timestamp < auctionEndTime, \"Auction is over or not started.\");\n        _;\n    }\n\n    modifier higherThanHighestBid() {\n        require(msg.value > highestBid.bidAmount, \"There's a higher bidder.\");\n        _;\n    }\n\n\n    constructor() payable {\n        owner = payable(msg.sender);\n    }\n\n    event AuctionStarted(uint startTime, uint endTime);\n    event AuctionEnded(uint endTime);\n    event NewBid(address bidder, uint amount);\n\n    function startAuction(uint _auctionDuration) onlyOwner() external {\n\n        auctionStartTime = block.timestamp;\n        auctionEndTime = block.timestamp + _auctionDuration;\n        emit AuctionStarted(block.timestamp, block.timestamp + _auctionDuration);\n\n    }\n\n\n    function bid() public payable auctionNotEnded() higherThanHighestBid() {\n        // Modifiers make sure that auction is currently live and\n        // bid amount is higher than the highest bid\n        // So we write the rest of the logic\n\n        Bid memory newBid = Bid(msg.sender, msg.value);\n        allBids.push(newBid);\n        highestBid = newBid;\n        emit NewBid(msg.sender, msg.value);\n    }\n\n\n    //lower gas\n    function getHighestBidIndex() internal view returns(uint highestBidIndex) {\n        Bid memory _highestBid = highestBid;\n        Bid[] memory _allBids = allBids;\n        for (uint256 i = 0; i < _allBids.length; ) {\n            if (_allBids[i].bidder == _highestBid.bidder && _allBids[i].bidAmount == highestBid.bidAmount) {\n                return i;\n            }\n            ++i;\n        }\n    }\n\n    function highGasgetHighestBidIndex() internal view returns(uint highestBidIndex) {\n\n        for (uint256 i = 0; i < allBids.length; ) {\n            if (allBids[i].bidder == highestBid.bidder && allBids[i].bidAmount == highestBid.bidAmount) {\n                return i;\n            }\n            ++i;\n        }\n    }\n\n    function endAuction() external onlyOwner() {\n        require(block.timestamp > auctionEndTime, \"Auction duration is not over.\");\n        delete allBids[getHighestBidIndex()];\n        Bid[] memory _allBids = allBids;\n        for (uint256 i = 0; i < _allBids.length; ) {\n            require(address(this).balance >= _allBids[i].bidAmount, \"Not enough ether\");\n            payable(_allBids[i].bidder).transfer(_allBids[i].bidAmount);\n            ++i;\n        }\n    }\n\n    function timeLeftForAuction() external view returns(uint) {\n        return auctionEndTime - block.timestamp;\n    }\n\n\n\n\n\n\n    function getContractBalance() external view returns(uint) {\n        return address(this).balance;\n    }\n\n\n\n}",
  "sourcePath": "/Users/onur/Desktop/solidity-auction/contracts/OpenAuction.sol",
  "compiler": {
    "name": "solc",
    "version": "0.8.15+commit.e14f2714.Emscripten.clang"
  },
  "schemaVersion": "3.4.8",
  "updatedAt": "2022-07-30T07:07:41.250Z",
  "networkType": "ethereum",
  "devdoc": {
    "kind": "dev",
    "methods": {},
    "version": 1
  },
  "userdoc": {
    "kind": "user",
    "methods": {},
    "version": 1
  }
}